:100000000C9462000C948A000C948A000C948A0070
:100010000C948A000C948A000C948A000C948A0038
:100020000C948A000C948A000C948A000C948A0028
:100030000C948A000C948A000C948A000C948A0018
:100040000C9413030C948A000C9483030C945D03AA
:100050000C948A000C948A000C948A000C948A00F8
:100060000C948A000C948A000000000023002600F3
:10007000290000000008000201000003040700003E
:1000800000000000000000000000250028002B00F8
:1000900000000000240027002A00040404040404D3
:1000A0000404020202020202030303030303010227
:1000B00004081020408001020408102001020408F6
:1000C00010200A0511241FBECFEFD8E0DEBFCDBF40
:1000D00011E0A0E0B1E0ECECFAE002C005900D9276
:1000E000A437B107D9F722E0A4E7B1E001C01D921F
:1000F000AB31B207E1F710E0C2E6D0E004C02197CF
:10010000FE010E945905C136D107C9F70E94B50307
:100110000C9464050C940000CF93DF9390E0FC01F5
:10012000E255FF4F2491FC01E656FF4F849188234E
:10013000C1F090E0880F991FFC01E057FF4FC59177
:10014000D491FC01EA57FF4FA591B4919FB7F89461
:100150008881322F309583238883EC91E22BEC93B6
:100160009FBFDF91CF91089590E0FC01EE58FF4FC3
:100170002491FC01E255FF4F3491FC01E656FF4FFC
:10018000E491EE23B9F1222339F1233091F038F4D0
:100190002130A9F0223001F584B58F7D12C02730BF
:1001A00091F02830A1F02430B9F4809180008F7D47
:1001B00003C0809180008F77809380000DC084B54C
:1001C0008F7784BD09C08091B0008F7703C0809184
:1001D000B0008F7D8093B000F0E0EE0FFF1FE85974
:1001E000FF4FA591B491EC91E32381E090E021F4DD
:1001F00080E0089580E090E008958E3008F08E5001
:100200008770806480937C0080917A008064809302
:100210007A0080917A0086FDFCCF80917800209151
:10022000790090E0922B08953FB7F89480917A017D
:1002300090917B01A0917C01B0917D0126B5A89B96
:1002400005C02F3F19F00196A11DB11D3FBFBA2F68
:10025000A92F982F8827820F911DA11DB11DBC01C8
:10026000CD0142E0660F771F881F991F4A95D1F78D
:1002700008958F929F92AF92BF92CF92DF92EF92AA
:10028000FF926B017C010E9414014B015C01C114BF
:10029000D104E104F104F1F00E941401DC01CB016E
:1002A00088199909AA09BB09883E9340A105B1059F
:1002B00070F321E0C21AD108E108F10888EE880E37
:1002C00083E0981EA11CB11CC114D104E104F10407
:1002D00019F7DDCFFF90EF90DF90CF90BF90AF90F8
:1002E0009F908F900895CF92DF92EF92FF920F939D
:1002F0001F93CF93DF936C017A018B01C0E0D0E0B4
:10030000CE15DF0581F0D8016D918D01D601ED91FB
:10031000FC910190F081E02DC6010995892B11F027
:100320002196EECF7E01C701DF91CF911F910F91F2
:10033000FF90EF90DF90CF900895089580E090E0D7
:100340000895FC01538D448D252F30E0842F90E0DB
:10035000821B930B541710F0CF96089501970895C0
:10036000FC01918D828D981761F0828DDF01A80FBD
:10037000B11D5D968C91928D9F5F9F73928F90E0DF
:1003800008958FEF9FEF0895FC01918D828D98174E
:1003900031F0828DE80FF11D858D90E008958FEF8B
:1003A0009FEF0895FC01918D228D892F90E0805C54
:1003B0009F4F821B91098F73992708958EE791E0D3
:1003C0000E94D20121E0892B09F420E0822F0895B8
:1003D000FC01848DDF01A80FB11DA35ABF4F2C91E2
:1003E000848D90E001968F739927848FA689B789B1
:1003F0002C93A089B1898C91837080648C93938DA8
:10040000848D981306C00288F389E02D80818F7D4A
:1004100080830895EF92FF920F931F93CF93DF9302
:10042000EC0181E0888F9B8D8C8D981305C0E88945
:10043000F989808185FD26C0F62E0B8D10E00F5FB7
:100440001F4F0F731127E02E8C8DE8120CC00FB6D2
:1004500007FCFACFE889F989808185FFF5CFCE01C5
:100460000E94E801F1CF8B8DFE01E80FF11DE35AE8
:10047000FF4FF0829FB7F8940B8FEA89FB89808148
:1004800080620AC09FB7F894EE89FF896083E8898B
:10049000F98980818370806480839FBF81E090E0D0
:1004A000DF91CF911F910F91FF90EF900895CF931F
:1004B000DF93EC01888D8823C9F0EA89FB8980816C
:1004C00085FD05C0A889B9898C9186FD0FC00FB63E
:1004D00007FCF5CF808185FFF2CFA889B9898C917F
:1004E00085FFEDCFCE010E94E801E7CFDF91CF91EC
:1004F000089580E090E0892B29F00E94DE018111AF
:100500000C9400000895009769F0FC010190002010
:10051000E9F73197AF01481B590BBC018EE791E019
:100520000C94730180E090E008958F929F92AF92B7
:10053000BF920F931F93CF93DF93CDB7DEB7A197F1
:100540000FB6F894DEBF0FBECDBF19A2423008F43B
:100550004AE08E010F5D1F4F842E912CA12CB12CEF
:10056000A50194010E943705E62FB901CA01015087
:100570001109EA3014F4E05D01C0E95CD801EC93A4
:10058000232B242B252B61F7C8010E948302A196FF
:100590000FB6F894DEBF0FBECDBFDF91CF911F9194
:1005A0000F91BF90AF909F908F900895CF92DF9260
:1005B000EF92FF92CF93DF936B017C016DE28EE7A8
:1005C00091E00E940A02EC0166277727CB016C19A3
:1005D0007D098E099F094AE00E9495028C0F9D1F9C
:1005E000DF91CF91FF90EF90DF90CF9008950C9422
:1005F0008302CF93DF93BC01990F880B990B97FF70
:1006000003C00E94D60203C04AE00E949502EC019A
:1006100082E191E00E9483028C0F9D1FDF91CF91B8
:1006200008950E945F051F920F920FB60F9211243A
:100630002F933F938F939F93AF93BF9380917601B6
:1006400090917701A0917801B09179013091750175
:1006500023E0230F2D3720F40196A11DB11D05C005
:1006600026E8230F0296A11DB11D209375018093EA
:10067000760190937701A0937801B09379018091EE
:100680007A0190917B01A0917C01B0917D0101964E
:10069000A11DB11D80937A0190937B01A0937C01F1
:1006A000B0937D01BF91AF919F918F913F912F9119
:1006B0000F900FBE0F901F9018951F920F920FB6BC
:1006C0000F9211242F933F934F935F936F937F93D8
:1006D0008F939F93AF93BF93EF93FF938EE791E038
:1006E0000E94E801FF91EF91BF91AF919F918F918F
:1006F0007F916F915F914F913F912F910F900FBE1E
:100700000F901F9018951F920F920FB60F92112401
:100710002F938F939F93EF93FF93E0918E01F0912E
:100720008F018081E0919401F091950182FD12C0CA
:100730009081809197018F5F8F732091980182172C
:1007400051F0E0919701F0E0E258FE4F958F8093D1
:10075000970101C08081FF91EF919F918F912F911F
:100760000F900FBE0F901F901895789484B58260FB
:1007700084BD84B5816084BD85B5826085BD85B545
:10078000816085BD80916E00816080936E001092C3
:10079000810080918100826080938100809181003E
:1007A00081608093810080918000816080938000CF
:1007B0008091B10084608093B1008091B00081602D
:1007C0008093B00080917A00846080937A00809159
:1007D0007A00826080937A0080917A0081608093B1
:1007E0007A0080917A00806880937A001092C1002C
:1007F00082E00E948C0088E00E948C008CE00E94C5
:100800008C008BE00E948C008AE00E948C0089E0C2
:100810000E948C00E0918E01F0918F0182E0808334
:10082000E0918A01F0918B011082E0918C01F091AE
:100830008D018FEC808310929601E0919201F091EE
:10084000930186E08083E0919001F0919101808195
:1008500080618083E0919001F091910180818860B6
:100860008083E0919001F091910180818068808384
:10087000E0919001F091910180818F7D808313E15F
:1008800001E086E00E94FD009C01129FC001139FC1
:10089000900D112497FF02C081509C4FEC01CD2F89
:1008A000DD0FDD0BC595C595299787E00E94FD00FA
:1008B0009C01129FC001139F900D112497FF02C04D
:1008C00081509C4F892F990F990B85958595099794
:1008D000D195C195D109EE24FF24E81AF90A82E0E6
:1008E0000E94B400892B99F4809174018027809331
:1008F000740185E191E00E94830282E191E00E940F
:10090000830268EC70E080E090E00E943901809101
:100910007401882351F0D7FD2196D595C795C7015D
:10092000F7FC01967C01F594E79488E00E94B400FE
:1009300099249394892B09F4912C8CE00E94B400A3
:10094000AA24A394892B09F4A12C8BE00E94B40063
:10095000BB24B394892B09F4B12C8AE00E94B40023
:10096000CC24C394892B09F4C12C89E00E94B400E3
:10097000DD24D394892B09F4D12C87E291E00E94E5
:10098000F702BE010D2E000C880B990BD7FF03C098
:100990000E94D60203C04AE00E9495028BE291E0D9
:1009A0000E94F70281E391E00E94F702C7010E94D2
:1009B000F90285E391E00E94F702892D90E00E9400
:1009C000F90280E491E00E94F7028A2D90E00E94F3
:1009D000F9028BE491E00E94F7028B2D90E00E94D7
:1009E000F90286E591E00E94F7028C2D90E00E94CA
:1009F000F90281E691E00E94F7028D2D90E00E94BD
:100A0000F90268EE73E080E090E00E9439010E94F4
:100A1000790237CFEEE7F1E01382128288EE93E09D
:100A2000A0E0B0E084839583A683B78384E091E05F
:100A30009183808385EC90E09587848784EC90E0B7
:100A40009787868780EC90E0918B808B81EC90E09B
:100A5000938B828B82EC90E0958B848B86EC90E07C
:100A6000978B868B118E128E138E148E0895A1E2B1
:100A70001A2EAA1BBB1BFD010DC0AA1FBB1FEE1F18
:100A8000FF1FA217B307E407F50720F0A21BB30B63
:100A9000E40BF50B661F771F881F991F1A9469F7DF
:100AA00060957095809590959B01AC01BD01CF013B
:100AB0000895EE0FFF1F0590F491E02D099481E059
:0C0AC00090E0F8940C946405F894FFCFCB
:100ACC00000000000A027301A1015702D201B0011B
:100ADC00C4010D0A00445049204D4F444520544F49
:100AEC0047474C45442100583A200020207C2020C8
:100AFC0000593A20004120425554544F4E3A2000A0
:100B0C004220425554544F4E3A20005820425554DE
:100B1C00544F4E3A20005920425554544F4E3A20CF
:100B2C000053484F554C44455220425554544F4E57
:040B3C003A2000005B
:00000001FF
