:100000000C9462000C948A000C948A000C948A0070
:100010000C948A000C948A000C948A000C948A0038
:100020000C948A000C948A000C948A000C948A0028
:100030000C948A000C948A000C948A000C948A0018
:100040000C942D020C948A000C949D020C9477025F
:100050000C948A000C948A000C948A000C948A00F8
:100060000C948A000C948A000000000025002800EF
:100070002B0000000000240027002A0000000000E0
:1000800023002600290004040404040404040202DA
:100090000202020203030303030301020408102007
:1000A0004080010204081020010204081020000012
:1000B0000008000201000003040700000000000027
:1000C0000000610411241FBECFEFD8E0DEBFCDBF1A
:1000D00011E0A0E0B1E0EAE7F9E002C005900D927E
:1000E000A633B107D9F721E0A6E3B1E001C01D9224
:1000F000AD3DB207E1F710E0C2E6D0E004C02197C1
:10010000FE010E94B004C136D107C9F70E94CF0298
:100110000C94BB040C9400008E3008F08E50877055
:10012000806480937C0080917A00806480937A0060
:1001300080917A0086FDFCCF809178002091790033
:1001400090E0922B08953FB7F89480913C019091F4
:100150003D01A0913E01B0913F0126B5A89B05C08D
:100160002F3F19F00196A11DB11D3FBFBA2FA92F36
:10017000982F8827820F911DA11DB11DBC01CD01B3
:1001800042E0660F771F881F991F4A95D1F708959F
:10019000CF92DF92EF92FF920F931F93CF93DF9353
:1001A0006C017A018B01C0E0D0E0CE15DF0581F053
:1001B000D8016D918D01D601ED91FC910190F081F6
:1001C000E02DC6010995892B11F02196EECF7E0115
:1001D000C701DF91CF911F910F91FF90EF90DF90BA
:1001E000CF900895089580E090E00895FC01538D2C
:1001F000448D252F30E0842F90E0821B930B541701
:1002000010F0CF96089501970895FC01918D828D8D
:10021000981761F0828DDF01A80FB11D5D968C915A
:10022000928D9F5F9F73928F90E008958FEF9FEF65
:100230000895FC01918D828D981731F0828DE80F21
:10024000F11D858D90E008958FEF9FEF0895FC01DB
:10025000918D228D892F90E0805C9F4F821B9109A8
:100260008F739927089580E491E00E94270121E08F
:10027000892B09F420E0822F0895FC01848DDF0191
:10028000A80FB11DA35ABF4F2C91848D90E0019609
:100290008F739927848FA689B7892C93A089B189F8
:1002A0008C91837080648C93938D848D981306C099
:1002B0000288F389E02D80818F7D80830895EF92FD
:1002C000FF920F931F93CF93DF93EC0181E0888F10
:1002D0009B8D8C8D981305C0E889F989808185FDF7
:1002E00026C0F62E0B8D10E00F5F1F4F0F731127E6
:1002F000E02E8C8DE8120CC00FB607FCFACFE8890F
:10030000F989808185FFF5CFCE010E943D01F1CFB3
:100310008B8DFE01E80FF11DE35AFF4FF0829FB76E
:10032000F8940B8FEA89FB89808180620AC09FB7AD
:10033000F894EE89FF896083E889F9898081837068
:10034000806480839FBF81E090E0DF91CF911F9117
:100350000F91FF90EF900895CF93DF93EC01888D7C
:100360008823C9F0EA89FB89808185FD05C0A889B9
:10037000B9898C9186FD0FC00FB607FCF5CF80813F
:1003800085FFF2CFA889B9898C9185FFEDCFCE0189
:100390000E943D01E7CFDF91CF91089580E090E08A
:1003A000892B29F00E94330181110C9400000895DB
:1003B000009769F0FC0101900020E9F73197AF0147
:1003C000481B590BBC0180E491E00C94C80080E00C
:1003D00090E008958F929F92AF92BF920F931F93D8
:1003E000CF93DF93CDB7DEB7A1970FB6F894DEBFFA
:1003F0000FBECDBF19A2423008F44AE08E010F5D56
:100400001F4F842E912CA12CB12CA50194010E9488
:100410008E04E62FB901CA0101501109EA3014F423
:10042000E05D01C0E95CD801EC93232B242B252B44
:1004300061F7C8010E94D801A1960FB6F894DEBFFB
:100440000FBECDBFDF91CF911F910F91BF90AF90A5
:100450009F908F9008950E94B6041F920F920FB63E
:100460000F9211242F933F938F939F93AF93BF933A
:100470008091380190913901A0913A01B0913B01EE
:100480003091370123E0230F2D3720F40196A11D71
:10049000B11D05C026E8230F0296A11DB11D2093B2
:1004A00037018093380190933901A0933A01B093BA
:1004B0003B0180913C0190913D01A0913E01B091A2
:1004C0003F010196A11DB11D80933C0190933D0118
:1004D000A0933E01B0933F01BF91AF919F918F9147
:1004E0003F912F910F900FBE0F901F9018951F9264
:1004F0000F920FB60F9211242F933F934F935F9358
:100500006F937F938F939F93AF93BF93EF93FF93DB
:1005100080E491E00E943D01FF91EF91BF91AF9186
:100520009F918F917F916F915F914F913F912F910B
:100530000F900FBE0F901F9018951F920F920FB63D
:100540000F9211242F938F939F93EF93FF93E0913A
:100550005001F09151018081E0915601F0915701D5
:1005600082FD12C09081809159018F5F8F7320911D
:100570005A01821751F0E0915901F0E0E05CFE4F22
:10058000958F8093590101C08081FF91EF919F91D8
:100590008F912F910F900FBE0F901F901895789408
:1005A00084B5826084BD84B5816084BD85B5826078
:1005B00085BD85B5816085BD80916E008160809329
:1005C0006E00109281008091810082608093810092
:1005D00080918100816080938100809180008160A2
:1005E000809380008091B10084608093B1008091FD
:1005F000B00081608093B00080917A008460809325
:100600007A0080917A00826080937A0080917A00EB
:10061000816080937A0080917A00806880937A006C
:100620001092C100ECE98E2EE0E09E2EF4012491A0
:10063000F8E8AF2EF0E0BF2EF50184918823C1F0D9
:1006400090E0880F991FFC01EE58FF4FC591D4919F
:10065000FC01E859FF4FA591B4913FB7F8949881F8
:10066000822F8095982398838C91822B8C933FBF07
:10067000E0915001F091510182E08083E0914C01C2
:10068000F0914D011082E0914E01F0914F018FECFD
:10069000808310925801E0915401F091550186E059
:1006A0008083E0915201F0915301808180618083C9
:1006B000E0915201F0915301808188608083E09144
:1006C0005201F0915301808180688083E091520152
:1006D000F091530180818F7D808360EB262E60E056
:1006E000362E87E00E948C0045E19C01429FC001AC
:1006F000439F900D112497FF02C081509C4FEC0145
:10070000CD2FDD0FDD0BC595C5952A9786E00E949C
:100710008C0025E1FC012E9FC0012F9F900D11241C
:1007200097FF02C081509C4F8C01012F110F110BBC
:10073000059505950A501109F1018491F401249160
:10074000F50134913323A1F1882339F1833091F0FD
:1007500038F48130A9F0823001F584B58F7D12C064
:10076000873091F08830A1F08430B9F48091800016
:100770008F7D03C0809180008F77809380000DC0B3
:1007800084B58F7784BD09C09091B0009F7703C076
:100790009091B0009F7D9093B000E32FF0E0EE0FBA
:1007A000FF1FE458FF4FA591B4918C918223A1F5CE
:1007B0008091360141E084278093360183E291E005
:1007C0000E94D80180E291E00E94D8010E94A3001B
:1007D0002B013C0188ECC82ED12CE12CF12C0E947D
:1007E000A300DC01CB0184199509A609B709883E4D
:1007F0009340A105B10598F3F1E0CF1AD108E108C3
:10080000F10828EE420E23E0521E611C711CC11437
:10081000D104E104F10419F780913601882351F0E5
:10082000D7FD2196D595C79517FF02C00F5F1F4FC3
:100830001595079582E191E00E94D8016E010D2E79
:10084000000CEE08FF08D7FF0EC06DE280E491E0D7
:100850000E945F0166277727CB016C197D098E09FD
:100860009F094AE003C04AE0C701B6010E94EA01BD
:1008700086E191E00E94D8018CE191E00E94D801CC
:100880006801012E000CEE08FF0817FF0EC06DE294
:1008900080E491E00E945F0166277727CB016C1905
:1008A0007D098E099F094AE003C04AE0C701B601ED
:1008B0000E94EA0180E291E00E94D8010E94CE01EC
:1008C00010CFE0E4F1E01382128288EE93E0A0E022
:1008D000B0E084839583A683B78384E091E091831D
:1008E000808385EC90E09587848784EC90E09787FF
:1008F000868780EC90E0918B808B81EC90E0938BED
:10090000828B82EC90E0958B848B86EC90E0978BC9
:10091000868B118E128E138E148E0895A1E21A2EDC
:10092000AA1BBB1BFD010DC0AA1FBB1FEE1FFF1F93
:10093000A217B307E407F50720F0A21BB30BE40BE3
:10094000F50B661F771F881F991F1A9469F760952A
:100950007095809590959B01AC01BD01CF010895E4
:10096000EE0FFF1F0590F491E02D099481E090E0D7
:0A097000F8940C94BB04F894FFCF38
:10097A00000000005F01C800F600AC012701050174
:10098A001901583A200020207C202000593A2000E2
:10099A000D0A00445049204D4F444520544F4747C3
:0609AA004C454421000051
:00000001FF
